{
  "contractName": "ItemManager",
  "abi": [
    {
      "anonymous": false,
      "inputs": [
        {
          "indexed": false,
          "internalType": "uint256",
          "name": "_itemIndex",
          "type": "uint256"
        },
        {
          "indexed": false,
          "internalType": "uint256",
          "name": "_step",
          "type": "uint256"
        },
        {
          "indexed": false,
          "internalType": "address",
          "name": "_itemAddress",
          "type": "address"
        }
      ],
      "name": "SupplyChainStep",
      "type": "event"
    },
    {
      "inputs": [],
      "name": "isOwner",
      "outputs": [
        {
          "internalType": "bool",
          "name": "",
          "type": "bool"
        }
      ],
      "stateMutability": "view",
      "type": "function",
      "constant": true
    },
    {
      "inputs": [
        {
          "internalType": "uint256",
          "name": "",
          "type": "uint256"
        }
      ],
      "name": "items",
      "outputs": [
        {
          "internalType": "contract Item",
          "name": "_item",
          "type": "address"
        },
        {
          "internalType": "string",
          "name": "_identifier",
          "type": "string"
        },
        {
          "internalType": "uint256",
          "name": "_itemPrice",
          "type": "uint256"
        },
        {
          "internalType": "enum ItemManager.SupplyChainState",
          "name": "_state",
          "type": "uint8"
        }
      ],
      "stateMutability": "view",
      "type": "function",
      "constant": true
    },
    {
      "inputs": [
        {
          "internalType": "string",
          "name": "_identifier",
          "type": "string"
        },
        {
          "internalType": "uint256",
          "name": "_itemPrice",
          "type": "uint256"
        }
      ],
      "name": "createItem",
      "outputs": [],
      "stateMutability": "nonpayable",
      "type": "function"
    },
    {
      "inputs": [
        {
          "internalType": "uint256",
          "name": "_itemIndex",
          "type": "uint256"
        }
      ],
      "name": "triggerPayment",
      "outputs": [],
      "stateMutability": "payable",
      "type": "function",
      "payable": true
    },
    {
      "inputs": [
        {
          "internalType": "uint256",
          "name": "_itemIndex",
          "type": "uint256"
        }
      ],
      "name": "triggerDelivery",
      "outputs": [],
      "stateMutability": "nonpayable",
      "type": "function"
    }
  ],
  "bytecode": "0x608060405234801561001057600080fd5b50336000806101000a81548173ffffffffffffffffffffffffffffffffffffffff021916908373ffffffffffffffffffffffffffffffffffffffff160217905550611826806100606000396000f3fe608060405260043610620000505760003560e01c8063800fb83f14620000555780638c55174214620000755780638f32d59b14620000a3578063bfb231d214620000d3578063cd31831e146200011a575b600080fd5b6200007360048036038101906200006d9190620009ff565b62000148565b005b3480156200008257600080fd5b50620000a160048036038101906200009b919062000999565b62000325565b005b348015620000b057600080fd5b50620000bb62000533565b604051620000ca919062000b4d565b60405180910390f35b348015620000e057600080fd5b50620000ff6004803603810190620000f99190620009ff565b6200058a565b60405162000111949392919062000ba7565b60405180910390f35b3480156200012757600080fd5b50620001466004803603810190620001409190620009ff565b62000677565b005b34600160008381526020019081526020016000206002015414620001a3576040517f08c379a00000000000000000000000000000000000000000000000000000000081526004016200019a9062000c1d565b60405180910390fd5b60006002811115620001ba57620001b962000f1e565b5b6001600083815260200190815260200160002060030160009054906101000a900460ff166002811115620001f357620001f262000f1e565b5b1462000236576040517f08c379a00000000000000000000000000000000000000000000000000000000081526004016200022d9062000bfb565b60405180910390fd5b7fa4035636e99f06b7651a604c1019fa4e8779fe68ef27eeb74dff2de348f6199b816001600084815260200190815260200160002060030160009054906101000a900460ff16600281111562000291576200029062000f1e565b5b6001600085815260200190815260200160002060000160009054906101000a900473ffffffffffffffffffffffffffffffffffffffff16604051620002d99392919062000c61565b60405180910390a1600180600083815260200190815260200160002060030160006101000a81548160ff021916908360028111156200031d576200031c62000f1e565b5b021790555050565b6200032f62000533565b62000371576040517f08c379a0000000000000000000000000000000000000000000000000000000008152600401620003689062000c3f565b60405180910390fd5b60003082600254604051620003869062000846565b620003949392919062000b6a565b604051809103906000f080158015620003b1573d6000803e3d6000fd5b5090508060016000600254815260200190815260200160002060000160006101000a81548173ffffffffffffffffffffffffffffffffffffffff021916908373ffffffffffffffffffffffffffffffffffffffff1602179055508260016000600254815260200190815260200160002060010190805190602001906200043992919062000854565b508160016000600254815260200190815260200160002060020181905550600060016000600254815260200190815260200160002060030160006101000a81548160ff0219169083600281111562000496576200049562000f1e565b5b02179055507fa4035636e99f06b7651a604c1019fa4e8779fe68ef27eeb74dff2de348f6199b60025460016000600254815260200190815260200160002060030160009054906101000a900460ff166002811115620004fa57620004f962000f1e565b5b836040516200050c9392919062000c61565b60405180910390a160026000815480929190620005299062000ea1565b9190505550505050565b60008060009054906101000a900473ffffffffffffffffffffffffffffffffffffffff1673ffffffffffffffffffffffffffffffffffffffff163373ffffffffffffffffffffffffffffffffffffffff1614905090565b60016020528060005260406000206000915090508060000160009054906101000a900473ffffffffffffffffffffffffffffffffffffffff1690806001018054620005d59062000e35565b80601f0160208091040260200160405190810160405280929190818152602001828054620006039062000e35565b8015620006545780601f10620006285761010080835404028352916020019162000654565b820191906000526020600020905b8154815290600101906020018083116200063657829003601f168201915b5050505050908060020154908060030160009054906101000a900460ff16905084565b6200068162000533565b620006c3576040517f08c379a0000000000000000000000000000000000000000000000000000000008152600401620006ba9062000c3f565b60405180910390fd5b60016002811115620006da57620006d962000f1e565b5b6001600083815260200190815260200160002060030160009054906101000a900460ff16600281111562000713576200071262000f1e565b5b1462000756576040517f08c379a00000000000000000000000000000000000000000000000000000000081526004016200074d9062000bfb565b60405180910390fd5b60026001600083815260200190815260200160002060030160006101000a81548160ff0219169083600281111562000793576200079262000f1e565b5b02179055507fa4035636e99f06b7651a604c1019fa4e8779fe68ef27eeb74dff2de348f6199b816001600084815260200190815260200160002060030160009054906101000a900460ff166002811115620007f357620007f262000f1e565b5b6001600085815260200190815260200160002060000160009054906101000a900473ffffffffffffffffffffffffffffffffffffffff166040516200083b9392919062000c61565b60405180910390a150565b610774806200107d83390190565b828054620008629062000e35565b90600052602060002090601f016020900481019282620008865760008555620008d2565b82601f10620008a157805160ff1916838001178555620008d2565b82800160010185558215620008d2579182015b82811115620008d1578251825591602001919060010190620008b4565b5b509050620008e19190620008e5565b5090565b5b8082111562000900576000816000905550600101620008e6565b5090565b60006200091b620009158462000cc7565b62000c9e565b9050828152602081018484840111156200093a576200093962000fb0565b5b6200094784828562000df0565b509392505050565b600082601f83011262000967576200096662000fab565b5b81356200097984826020860162000904565b91505092915050565b600081359050620009938162001062565b92915050565b60008060408385031215620009b357620009b262000fba565b5b600083013567ffffffffffffffff811115620009d457620009d362000fb5565b5b620009e2858286016200094f565b9250506020620009f58582860162000982565b9150509250929050565b60006020828403121562000a185762000a1762000fba565b5b600062000a288482850162000982565b91505092915050565b62000a3c8162000d19565b82525050565b62000a4d8162000d2d565b82525050565b62000a5e8162000d78565b82525050565b62000a6f8162000d8c565b82525050565b62000a808162000da0565b82525050565b600062000a938262000cfd565b62000a9f818562000d08565b935062000ab181856020860162000dff565b62000abc8162000fbf565b840191505092915050565b600062000ad6601c8362000d08565b915062000ae38262000fd0565b602082019050919050565b600062000afd601b8362000d08565b915062000b0a8262000ff9565b602082019050919050565b600062000b2460158362000d08565b915062000b318262001022565b602082019050919050565b62000b478162000d6e565b82525050565b600060208201905062000b64600083018462000a42565b92915050565b600060608201905062000b81600083018662000a53565b62000b90602083018562000b3c565b62000b9f604083018462000b3c565b949350505050565b600060808201905062000bbe600083018762000a64565b818103602083015262000bd2818662000a86565b905062000be3604083018562000b3c565b62000bf2606083018462000a75565b95945050505050565b6000602082019050818103600083015262000c168162000ac7565b9050919050565b6000602082019050818103600083015262000c388162000aee565b9050919050565b6000602082019050818103600083015262000c5a8162000b15565b9050919050565b600060608201905062000c78600083018662000b3c565b62000c87602083018562000b3c565b62000c96604083018462000a31565b949350505050565b600062000caa62000cbd565b905062000cb8828262000e6b565b919050565b6000604051905090565b600067ffffffffffffffff82111562000ce55762000ce462000f7c565b5b62000cf08262000fbf565b9050602081019050919050565b600081519050919050565b600082825260208201905092915050565b600062000d268262000d4e565b9050919050565b60008115159050919050565b600081905062000d49826200104b565b919050565b600073ffffffffffffffffffffffffffffffffffffffff82169050919050565b6000819050919050565b600062000d858262000db4565b9050919050565b600062000d998262000dc8565b9050919050565b600062000dad8262000d39565b9050919050565b600062000dc18262000ddc565b9050919050565b600062000dd58262000ddc565b9050919050565b600062000de98262000d4e565b9050919050565b82818337600083830152505050565b60005b8381101562000e1f57808201518184015260208101905062000e02565b8381111562000e2f576000848401525b50505050565b6000600282049050600182168062000e4e57607f821691505b6020821081141562000e655762000e6462000f4d565b5b50919050565b62000e768262000fbf565b810181811067ffffffffffffffff8211171562000e985762000e9762000f7c565b5b80604052505050565b600062000eae8262000d6e565b91507fffffffffffffffffffffffffffffffffffffffffffffffffffffffffffffffff82141562000ee45762000ee362000eef565b5b600182019050919050565b7f4e487b7100000000000000000000000000000000000000000000000000000000600052601160045260246000fd5b7f4e487b7100000000000000000000000000000000000000000000000000000000600052602160045260246000fd5b7f4e487b7100000000000000000000000000000000000000000000000000000000600052602260045260246000fd5b7f4e487b7100000000000000000000000000000000000000000000000000000000600052604160045260246000fd5b600080fd5b600080fd5b600080fd5b600080fd5b6000601f19601f8301169050919050565b7f4974656d206973206675727468657220696e2074686520636861696e00000000600082015250565b7f4f6e6c792066756c6c207061796d656e74732061636365707465640000000000600082015250565b7f596f7520617265206e6f7420746865206f776e65720000000000000000000000600082015250565b600381106200105f576200105e62000f1e565b5b50565b6200106d8162000d6e565b81146200107957600080fd5b5056fe608060405234801561001057600080fd5b50604051610774380380610774833981810160405281019061003291906100b3565b816000819055508060028190555082600360006101000a81548173ffffffffffffffffffffffffffffffffffffffff021916908373ffffffffffffffffffffffffffffffffffffffff160217905550505050610187565b60008151905061009881610159565b92915050565b6000815190506100ad81610170565b92915050565b6000806000606084860312156100cc576100cb610154565b5b60006100da86828701610089565b93505060206100eb8682870161009e565b92505060406100fc8682870161009e565b9150509250925092565b60006101118261012a565b9050919050565b600061012382610106565b9050919050565b600073ffffffffffffffffffffffffffffffffffffffff82169050919050565b6000819050919050565b600080fd5b61016281610118565b811461016d57600080fd5b50565b6101798161014a565b811461018457600080fd5b50565b6105de806101966000396000f3fe6080604052600436106100385760003560e01c80632986c0e5146102505780633c8da5881461027b57806389794d00146102a657610241565b3661024157600060015414610082576040517f08c379a0000000000000000000000000000000000000000000000000000000008152600401610079906103a3565b60405180910390fd5b34600054146100c6576040517f08c379a00000000000000000000000000000000000000000000000000000000081526004016100bd906103e3565b60405180910390fd5b34600160008282546100d89190610445565b925050819055506000600360009054906101000a900473ffffffffffffffffffffffffffffffffffffffff1673ffffffffffffffffffffffffffffffffffffffff163460025460405160240161012e9190610403565b6040516020818303038152906040527f800fb83f000000000000000000000000000000000000000000000000000000007bffffffffffffffffffffffffffffffffffffffffffffffffffffffff19166020820180517bffffffffffffffffffffffffffffffffffffffffffffffffffffffff83818316178352505050506040516101b8919061038c565b60006040518083038185875af1925050503d80600081146101f5576040519150601f19603f3d011682016040523d82523d6000602084013e6101fa565b606091505b505090508061023e576040517f08c379a0000000000000000000000000000000000000000000000000000000008152600401610235906103c3565b60405180910390fd5b50005b34801561024d57600080fd5b50005b34801561025c57600080fd5b506102656102d1565b6040516102729190610403565b60405180910390f35b34801561028757600080fd5b506102906102d7565b60405161029d9190610403565b60405180910390f35b3480156102b257600080fd5b506102bb6102dd565b6040516102c89190610403565b60405180910390f35b60025481565b60005481565b60015481565b60006102ee8261041e565b6102f88185610429565b93506103088185602086016104a5565b80840191505092915050565b6000610321601483610434565b915061032c82610507565b602082019050919050565b6000610344602c83610434565b915061034f82610530565b604082019050919050565b6000610367601a83610434565b91506103728261057f565b602082019050919050565b6103868161049b565b82525050565b600061039882846102e3565b915081905092915050565b600060208201905081810360008301526103bc81610314565b9050919050565b600060208201905081810360008301526103dc81610337565b9050919050565b600060208201905081810360008301526103fc8161035a565b9050919050565b6000602082019050610418600083018461037d565b92915050565b600081519050919050565b600081905092915050565b600082825260208201905092915050565b60006104508261049b565b915061045b8361049b565b9250827fffffffffffffffffffffffffffffffffffffffffffffffffffffffffffffffff038211156104905761048f6104d8565b5b828201905092915050565b6000819050919050565b60005b838110156104c35780820151818401526020810190506104a8565b838111156104d2576000848401525b50505050565b7f4e487b7100000000000000000000000000000000000000000000000000000000600052601160045260246000fd5b7f4974656d206973207061696420616c7265616479000000000000000000000000600082015250565b7f546865207472616e73616374696f6e207761736e27742073756363657373667560008201527f6c2c2063616e63656c696e670000000000000000000000000000000000000000602082015250565b7f4f6e6c792066756c6c207061796d656e7420616c6c6f7765642000000000000060008201525056fea264697066735822122058d09e0730cf695f7f456c6542b19489d701b01a24d3995295f9e5ed96eaf7a164736f6c63430008070033a264697066735822122072162776150cfc83131ee0d4179d1093b9257810ea3a6665ba00bfebd7f8c67064736f6c63430008070033",
  "immutableReferences": {},
  "source": "pragma solidity ^0.8.7;\n\nimport \"./Ownable.sol\";\nimport \"./Item.sol\";\n\ncontract ItemManager is Ownable {\n\n    enum SupplyChainState{Created, Paid, Delivered}\n\n    struct S_Item {\n        Item _item;\n        string _identifier;\n        uint _itemPrice;\n        ItemManager.SupplyChainState _state;\n    }\n\n    mapping(uint => S_Item) public items;\n    uint itemIndex;\n\n    event SupplyChainStep(uint _itemIndex, uint _step, address _itemAddress);\n\n    function createItem(string memory _identifier, uint _itemPrice) public onlyOwner {\n        Item item = new Item(this, _itemPrice, itemIndex);\n        items[itemIndex]._item = item;\n        items[itemIndex]._identifier = _identifier;\n        items[itemIndex]._itemPrice = _itemPrice;\n        items[itemIndex]._state = SupplyChainState.Created;\n        emit SupplyChainStep(itemIndex, uint(items[itemIndex]._state), address(item));\n        itemIndex++;\n    }\n\n    function triggerPayment(uint _itemIndex) public payable {\n        require(items[_itemIndex]._itemPrice == msg.value, \"Only full payments accepted\");\n        require(items[_itemIndex]._state == SupplyChainState.Created, \"Item is further in the chain\");\n        emit SupplyChainStep(_itemIndex, uint(items[_itemIndex]._state), address(items[_itemIndex]._item));\n        items[_itemIndex]._state = SupplyChainState.Paid;\n    }\n\n    function triggerDelivery(uint _itemIndex) public onlyOwner {\n        require(items[_itemIndex]._state == SupplyChainState.Paid, \"Item is further in the chain\");\n        items[_itemIndex]._state = SupplyChainState.Delivered;\n        emit SupplyChainStep(_itemIndex, uint(items[_itemIndex]._state), address(items[_itemIndex]._item));\n    }\n}",
  "sourcePath": "/Users/alexandredeoliveira/Documents/personal_projects/blockchain/first_supply_chain/contracts/ItemManager.sol",
  "compiler": {
    "name": "solc",
    "version": "0.8.7+commit.e28d00a7.Emscripten.clang"
  },
  "schemaVersion": "3.4.7",
  "updatedAt": "2022-06-15T17:52:42.375Z",
  "networkType": "ethereum",
  "devdoc": {
    "kind": "dev",
    "methods": {},
    "version": 1
  },
  "userdoc": {
    "kind": "user",
    "methods": {},
    "version": 1
  }
}